:10000000FDC000001AC1000018C1000016C10000A8
:1000100014C1000012C1000010C100000EC1000098
:100020000CC100000AC1000008C1000006C10000A8
:1000300004C1000002C1000027C1000052C100003D
:100040007DC10000A8C10000D3C10000FEC10000B6
:1000500029C2000054C200007FC20000AAC20000F2
:10006000ECC00000EAC00000E8C00000E6C00000EC
:10007000E4C00000E2C00000E0C00000DEC00000FC
:10008000DCC00000DAC00000D8C00000D6C000000C
:10009000D4C00000D2C00000D0C00000CEC000001C
:1000A000CCC00000CAC00000C8C00000C6C000002C
:1000B000C4C00000C2C00000C0C0000069C400008D
:1000C00094C40000BFC40000EAC4000015C50000CD
:1000D00040C500006BC5000096C50000C1C500000A
:1000E000ECC50000AAC00000A8C00000A6C0000027
:1000F000A4C00000A2C00000A0C000009EC000007C
:100100009CC000009AC0000098C0000096C000008B
:1001100094C0000092C0000090C000008EC000009B
:100120008CC000008AC0000088C0000086C00000AB
:1001300084C000006BC2000096C20000C1C2000073
:10014000ECC2000017C3000042C300006DC30000F2
:1001500098C30000C3C30000EEC300006EC00000DF
:100160006CC000006AC0000068C0000066C00000EB
:1001700064C0000062C0000060C000005EC00000FB
:100180005CC000005AC0000058C0000056C000000B
:1001900054C0000052C0000050C000004EC000001B
:1001A0004CC000004AC0000048C0000046C000002B
:1001B000B1C50000DCC5000007C6000032C6000063
:1001C0005DC6000088C6000038C0000036C00000D0
:1001D00034C0000032C0000030C000002EC000005B
:1001E0002CC000002AC0000028C0000026C000006B
:1001F00024C0000022C0000020C0000011241FBE47
:10020000CFEFCDBFDFE5DEBF00E00CBF10E2A0E026
:10021000B0E2EAE1F1E100E00BBF02C007900D920D
:10022000A030B107D9F720E2A0E0B0E201C01D92F2
:10023000AF34B207E1F760D76EC7E2CE8FEF80939D
:10024000700080937100809372008093730080939C
:10025000740080937500809376000895CF93DF93A8
:100260001F92CDB7DEB79FB79983F8949981E82F95
:10027000F0E0E059FF4F60958081682360839FBF65
:100280000F90DF91CF9108951F920F920FB60F92AA
:1002900011240BB60F922F933F934F935F936F935D
:1002A0007F938F939F93AF93BF93EF93FF93E091CF
:1002B0004620F0914720309709F01995FF91EF9172
:1002C000BF91AF919F918F917F916F915F914F916E
:1002D0003F912F910F900BBE0F900FBE0F901F906C
:1002E00018951F920F920FB60F9211240BB60F9212
:1002F0002F933F934F935F936F937F938F939F932E
:10030000AF93BF93EF93FF93E0914420F09145208A
:10031000309709F01995FF91EF91BF91AF919F919F
:100320008F917F916F915F914F913F912F910F909E
:100330000BBE0F900FBE0F901F9018951F920F923B
:100340000FB60F9211240BB60F922F933F934F933A
:100350005F936F937F938F939F93AF93BF93EF932D
:10036000FF93E0914220F0914320309709F01995D6
:10037000FF91EF91BF91AF919F918F917F916F917D
:100380005F914F913F912F910F900BBE0F900FBE39
:100390000F901F9018951F920F920FB60F92112475
:1003A0000BB60F922F933F934F935F936F937F936F
:1003B0008F939F93AF93BF93EF93FF93E091402070
:1003C000F0914120309709F01995FF91EF91BF917D
:1003D000AF919F918F917F916F915F914F913F91DD
:1003E0002F910F900BBE0F900FBE0F901F9018957E
:1003F0001F920F920FB60F9211240BB60F922F93EC
:100400003F934F935F936F937F938F939F93AF939C
:10041000BF93EF93FF93E0913E20F0913F20309700
:1004200009F01995FF91EF91BF91AF919F918F9135
:100430007F916F915F914F913F912F910F900BBEE4
:100440000F900FBE0F901F9018951F920F920FB62E
:100450000F9211240BB60F922F933F934F935F93FC
:100460006F937F938F939F93AF93BF93EF93FF937C
:10047000E0913C20F0913D20309709F01995FF91D3
:10048000EF91BF91AF919F918F917F916F915F910C
:100490004F913F912F910F900BBE0F900FBE0F9079
:1004A0001F9018951F920F920FB60F9211240BB642
:1004B0000F922F933F934F935F936F937F938F93FD
:1004C0009F93AF93BF93EF93FF93E0913A20F09106
:1004D0003B20309709F01995FF91EF91BF91AF91B3
:1004E0009F918F917F916F915F914F913F912F914C
:1004F0000F900BBE0F900FBE0F901F9018951F927C
:100500000F920FB60F9211240BB60F922F933F93B9
:100510004F935F936F937F938F939F93AF93BF930B
:10052000EF93FF93E0913820F0913920309709F054
:100530001995FF91EF91BF91AF919F918F917F910D
:100540006F915F914F913F912F910F900BBE0F9044
:100550000FBE0F901F9018951F920F920FB60F921B
:1005600011240BB60F922F933F934F935F936F938A
:100570007F938F939F93AF93BF93EF93FF93E091FC
:100580003620F0913720309709F01995FF91EF91BF
:10059000BF91AF919F918F917F916F915F914F919B
:1005A0003F912F910F900BBE0F900FBE0F901F9099
:1005B00018951F920F920FB60F9211240BB60F923F
:1005C0002F933F934F935F936F937F938F939F935B
:1005D000AF93BF93EF93FF93E0913420F0913520D8
:1005E000309709F01995FF91EF91BF91AF919F91CD
:1005F0008F917F916F915F914F913F912F910F90CC
:100600000BBE0F900FBE0F901F9018951F920F9268
:100610000FB60F9211240BB60F922F933F934F9367
:100620005F936F937F938F939F93AF93BF93EF935A
:10063000FF93E0913220F0913320309709F0199523
:10064000FF91EF91BF91AF919F918F917F916F91AA
:100650005F914F913F912F910F900BBE0F900FBE66
:100660000F901F9018951F920F920FB60F921124A2
:100670000BB60F922F933F934F935F936F937F939C
:100680008F939F93AF93BF93EF93FF93E0913020AD
:10069000F0913120309709F01995FF91EF91BF91BA
:1006A000AF919F918F917F916F915F914F913F910A
:1006B0002F910F900BBE0F900FBE0F901F901895AB
:1006C0001F920F920FB60F9211240BB60F922F9319
:1006D0003F934F935F936F937F938F939F93AF93CA
:1006E000BF93EF93FF93E0912E20F0912F2030974E
:1006F00009F01995FF91EF91BF91AF919F918F9163
:100700007F916F915F914F913F912F910F900BBE11
:100710000F900FBE0F901F9018951F920F920FB65B
:100720000F9211240BB60F922F933F934F935F9329
:100730006F937F938F939F93AF93BF93EF93FF93A9
:10074000E0912C20F0912D20309709F01995FF9120
:10075000EF91BF91AF919F918F917F916F915F9139
:100760004F913F912F910F900BBE0F900FBE0F90A6
:100770001F9018951F920F920FB60F9211240BB66F
:100780000F922F933F934F935F936F937F938F932A
:100790009F93AF93BF93EF93FF93E0912A20F09143
:1007A0002B20309709F01995FF91EF91BF91AF91F0
:1007B0009F918F917F916F915F914F913F912F9179
:1007C0000F900BBE0F900FBE0F901F9018951F92A9
:1007D0000F920FB60F9211240BB60F922F933F93E7
:1007E0004F935F936F937F938F939F93AF93BF9339
:1007F000EF93FF93E0912820F0912920309709F0A2
:100800001995FF91EF91BF91AF919F918F917F913A
:100810006F915F914F913F912F910F900BBE0F9071
:100820000FBE0F901F9018951F920F920FB60F9248
:1008300011240BB60F922F933F934F935F936F93B7
:100840007F938F939F93AF93BF93EF93FF93E09129
:100850002620F0912720309709F01995FF91EF910C
:10086000BF91AF919F918F917F916F915F914F91C8
:100870003F912F910F900BBE0F900FBE0F901F90C6
:1008800018951F920F920FB60F9211240BB60F926C
:100890002F933F934F935F936F937F938F939F9388
:1008A000AF93BF93EF93FF93E0912420F091252025
:1008B000309709F01995FF91EF91BF91AF919F91FA
:1008C0008F917F916F915F914F913F912F910F90F9
:1008D0000BBE0F900FBE0F901F9018951F920F9296
:1008E0000FB60F9211240BB60F922F933F934F9395
:1008F0005F936F937F938F939F93AF93BF93EF9388
:10090000FF93E0912220F0912320309709F0199570
:10091000FF91EF91BF91AF919F918F917F916F91D7
:100920005F914F913F912F910F900BBE0F900FBE93
:100930000F901F9018951F920F920FB60F921124CF
:100940000BB60F922F933F934F935F936F937F93C9
:100950008F939F93AF93BF93EF93FF93E0912020EA
:10096000F0912120309709F01995FF91EF91BF91F7
:10097000AF919F918F917F916F915F914F913F9137
:100980002F910F900BBE0F900FBE0F901F901895D8
:100990001F920F920FB60F9211240BB60F922F9346
:1009A0003F934F935F936F937F938F939F93AF93F7
:1009B000BF93EF93FF93E0911E20F0911F2030979B
:1009C00009F01995FF91EF91BF91AF919F918F9190
:1009D0007F916F915F914F913F912F910F900BBE3F
:1009E0000F900FBE0F901F9018951F920F920FB689
:1009F0000F9211240BB60F922F933F934F935F9357
:100A00006F937F938F939F93AF93BF93EF93FF93D6
:100A1000E0911C20F0911D20309709F01995FF916D
:100A2000EF91BF91AF919F918F917F916F915F9166
:100A30004F913F912F910F900BBE0F900FBE0F90D3
:100A40001F9018951F920F920FB60F9211240BB69C
:100A50000F922F933F934F935F936F937F938F9357
:100A60009F93AF93BF93EF93FF93E0911A20F09180
:100A70001B20309709F01995FF91EF91BF91AF912D
:100A80009F918F917F916F915F914F913F912F91A6
:100A90000F900BBE0F900FBE0F901F9018951F92D6
:100AA0000F920FB60F9211240BB60F922F933F9314
:100AB0004F935F936F937F938F939F93AF93BF9366
:100AC000EF93FF93E0911820F0911920309709F0EF
:100AD0001995FF91EF91BF91AF919F918F917F9168
:100AE0006F915F914F913F912F910F900BBE0F909F
:100AF0000FBE0F901F9018951F920F920FB60F9276
:100B000011240BB60F922F933F934F935F936F93E4
:100B10007F938F939F93AF93BF93EF93FF93E09156
:100B20001620F0911720309709F01995FF91EF9159
:100B3000BF91AF919F918F917F916F915F914F91F5
:100B40003F912F910F900BBE0F900FBE0F901F90F3
:100B500018951F920F920FB60F9211240BB60F9299
:100B60002F933F934F935F936F937F938F939F93B5
:100B7000AF93BF93EF93FF93E0911420F091152072
:100B8000309709F01995FF91EF91BF91AF919F9127
:100B90008F917F916F915F914F913F912F910F9026
:100BA0000BBE0F900FBE0F901F9018951F920F92C3
:100BB0000FB60F9211240BB60F922F933F934F93C2
:100BC0005F936F937F938F939F93AF93BF93EF93B5
:100BD000FF93E0911220F0911320309709F01995BE
:100BE000FF91EF91BF91AF919F918F917F916F9105
:100BF0005F914F913F912F910F900BBE0F900FBEC1
:100C00000F901F9018951F920F920FB60F921124FC
:100C10000BB60F922F933F934F935F936F937F93F6
:100C20008F939F93AF93BF93EF93FF93E091102027
:100C3000F0911120309709F01995FF91EF91BF9134
:100C4000AF919F918F917F916F915F914F913F9164
:100C50002F910F900BBE0F900FBE0F901F90189505
:100C60001F920F920FB60F9211240BB60F922F9373
:100C70003F934F935F936F937F938F939F93AF9324
:100C8000BF93EF93FF93E0910E20F0910F203097E8
:100C900009F01995FF91EF91BF91AF919F918F91BD
:100CA0007F916F915F914F913F912F910F900BBE6C
:100CB0000F900FBE0F901F9018951F920F920FB6B6
:100CC0000F9211240BB60F922F933F934F935F9384
:100CD0006F937F938F939F93AF93BF93EF93FF9304
:100CE000E0910C20F0910D20309709F01995FF91BB
:100CF000EF91BF91AF919F918F917F916F915F9194
:100D00004F913F912F910F900BBE0F900FBE0F9000
:100D10001F9018951F920F920FB60F9211240BB6C9
:100D20000F922F933F934F935F936F937F938F9384
:100D30009F93AF93BF93EF93FF93E0910A20F091BD
:100D40000B20309709F01995FF91EF91BF91AF916A
:100D50009F918F917F916F915F914F913F912F91D3
:100D60000F900BBE0F900FBE0F901F9018951F9203
:100D70000F920FB60F9211240BB60F922F933F9341
:100D80004F935F936F937F938F939F93AF93BF9393
:100D9000EF93FF93E0910820F0910920309709F03C
:100DA0001995FF91EF91BF91AF919F918F917F9195
:100DB0006F915F914F913F912F910F900BBE0F90CC
:100DC0000FBE0F901F9018951F920F920FB60F92A3
:100DD00011240BB60F922F933F934F935F936F9312
:100DE0007F938F939F93AF93BF93EF93FF93E09184
:100DF0000620F0910720309709F01995FF91EF91A7
:100E0000BF91AF919F918F917F916F915F914F9122
:100E10003F912F910F900BBE0F900FBE0F901F9020
:100E200018951F920F920FB60F9211240BB60F92C6
:100E30002F933F934F935F936F937F938F939F93E2
:100E4000AF93BF93EF93FF93E0910420F0910520BF
:100E5000309709F01995FF91EF91BF91AF919F9154
:100E60008F917F916F915F914F913F912F910F9053
:100E70000BBE0F900FBE0F901F9018951F920F92F0
:100E80000FB60F9211240BB60F922F933F934F93EF
:100E90005F936F937F938F939F93AF93BF93EF93E2
:100EA000FF93E0910220F0910320309709F019950B
:100EB000FF91EF91BF91AF919F918F917F916F9132
:100EC0005F914F913F912F910F900BBE0F900FBEEE
:100ED0000F901F9018951F920F920FB60F9211242A
:100EE0000BB60F922F933F934F935F936F937F9324
:100EF0008F939F93AF93BF93EF93FF93E091002065
:100F0000F0910120309709F01995FF91EF91BF9171
:100F1000AF919F918F917F916F915F914F913F9191
:100F20002F910F900BBE0F900FBE0F901F90189532
:100F30001F93CF93DF931F921F92CDB7DEB72FB7CA
:100F40002A83F8941A81282F392F211588E0380731
:100F500039F461E083E082D964E083E07FD943C063
:100F6000203488E0380739F462E083E077D964E020
:100F700083E074D938C0211589E0380739F461E07D
:100F800084E06CD964E084E069D92DC0203489E024
:100F9000380739F462E084E061D964E084E05ED926
:100FA00022C021158AE0380739F461E085E056D97E
:100FB00064E085E053D917C020348AE0380739F45B
:100FC00062E085E04BD964E085E048D90CC021158A
:100FD0003B4039F461E086E041D964E086E03ED9E7
:100FE00002C01FBF10C080914A208F3F09F4FFCF7D
:100FF0008FB78983F8949981E9E4F0E281818F5F6A
:1010000081839FBF1FBF0F900F90DF91CF911F91E2
:101010000895811528E0920729F460934620709383
:1010200047200895803428E0920729F460933A20FD
:1010300070933B200895811529E0920729F460936D
:101040003220709333200895803429E0920729F4E8
:101050006093262070932720089581152AE0920737
:1010600029F460931E2070931F20089580342AE095
:10107000920729F46093122070931320089581152C
:101080009B4021F460930A2070930B200895809177
:101090004820882319F0813029F0089581E0809359
:1010A00048200895109248200895E7EEF7E09091C7
:1010B0004820911102C08083FACF6083F8CF80E08E
:1010C00098E036DF67E478E080E098E0A2DFE0E0D7
:1010D000F8E08181887F818388EE93E086A397A3DF
:1010E00086818C7F868386818160868378948081E7
:1010F000807F87608083089587E08093A2009ED8D8
:10110000DEDF8FEF8093E0078093E7076DEF70E0FD
:0A1110008EEF90E0CADFF894FFCFE5
:00000001FF
