:100000004EC200006DC200006BC2000069C2000059
:1000100067C2000065C2000063C2000061C2000048
:100020005FC200005DC200005BC2000059C2000058
:1000300057C2000055C2000053C2000051C2000068
:100040004FC200004DC200004BC2000049C2000078
:1000500047C2000045C2000043C2000041C2000088
:100060003FC200003DC200003BC2000039C2000098
:1000700037C2000035C2000033C2000031C20000A8
:100080002FC200002DC200002BC2000029C20000B8
:1000900027C2000025C2000023C200000C94940D6A
:1000A0000C94C60D0C94F80D0C942A0E19C2000085
:1000B00017C2000015C2000013C2000011C20000E8
:1000C0000FC200000DC200000BC2000009C20000F8
:1000D00007C2000005C2000003C2000001C2000008
:1000E000FFC10000FDC10000FBC10000F9C100001C
:1000F000F7C10000F5C10000F3C10000F1C100002C
:10010000EFC10000EDC10000EBC10000E9C100003B
:10011000E7C10000E5C10000E3C100000C94CC0C75
:100120000C94FE0C0C94300D0C94620DD9C100009F
:10013000D7C10000D5C10000D3C10000D1C100006B
:10014000CFC10000CDC10000CBC10000C9C100007B
:10015000C7C10000C5C10000C3C10000C1C100008B
:10016000BFC10000BDC10000BBC10000B9C100009B
:10017000B7C10000B5C10000B3C10000B1C10000AB
:10018000AFC10000ADC10000ABC10000A9C10000BB
:10019000A7C10000A5C10000A3C10000A1C10000CB
:1001A0009FC100009DC100009BC1000099C10000DB
:1001B00097C1000095C1000093C1000091C10000EB
:1001C0008FC100008DC100008BC1000089C10000FB
:1001D00087C1000085C1000083C1000081C100000B
:1001E0007FC100007DC100007BC1000079C100001B
:1001F00077C1000075C1000073C10000000000005D
:10020000000000202020202000205050500000003E
:10021000005050F850F850502078A07028F020C0BE
:10022000C810204098186090A040A89068602040B6
:10023000000000001020404040201040201010100E
:100240002040005020F8205000002020F8202000FE
:1002500000000000602040000000F80000000000E6
:10026000000000606000081020408000708898A89E
:10027000C8887020602020202070708808102040DE
:10028000F8F810201008887010305090F81010F80E
:1002900080F008088870304080F0888870F8081076
:1002A00020404040708888708888707088887808FE
:1002B00010600060600060600000606000602040CE
:1002C000081020402010080000F800F800008040CE
:1002D0002010204080708808102000207088086856
:1002E000A8A87070888888F88888F08888F088883E
:1002F000F070888080808870E09088888890E0F82E
:100300008080F08080F8F88080E080808070888035
:1003100080988870888888F88888887020202020B5
:100320002070381010101090608890A0C0A09088A5
:10033000808080808080F888D8A88888888888888D
:10034000C8A898888870888888888870F08888F01D
:1003500080808070888888A89068F08888F0A09055
:1003600088788080700808F0F820202020202088DD
:1003700088888888887088888888885020888888B5
:10038000A8A8D8888888502050888888885020203D
:100390002020F80810204080F83820202020203825
:1003A00000804020100800E02020202020E0205085
:1003B0008800000000000000000000F8402010004D
:1003C000000000000070087888788080B0C88888B5
:1003D000F00000708080887008086898888878002D
:1003E000007088F88070304840E04040400000785D
:1003F000887808308080B0C88888882000602020F5
:1004000020701000301010906040404850605048FC
:10041000602020202020700000D0A8A8888800003C
:10042000B0C8888888000070888888700000F088CC
:10043000F08080000068987808080000B0C88080CC
:1004400080000070807008F04040E040404830007C
:100450000088888898680000888888502000008874
:1004600088A8A8500000885020508800008888780C
:1004700008700000F8102040F810202040202010C4
:1004800020202020202020402020102020405465C3
:100490006D706572617475726528462900001124BB
:1004A0001FBECFEFCDBFDFE5DEBF00E00CBF10E227
:1004B000A0E0B0E2E2ECFCE200E00BBF02C007907B
:1004C0000D92A833B107D9F722E2A8E3B0E201C048
:1004D0001D92AE34B207E1F70E94F9100C945F163A
:1004E0008FCDCF93DF931F921F92CDB7DEB76130D0
:1004F00069F5809139208F5F80933920813039F4FC
:1005000040933A2050933B2010923E2014C02091FB
:100510003A2030913B20420F531F56954795409308
:100520003A2050933B20843031F41092392081E0FE
:1005300080933E2039C08FB78A83F8949A81E0E097
:10054000F2E08081846080839FBF2EC0623061F5BD
:10055000809138208F5F80933820813039F4409328
:100560003C2050933D2010923F2014C020913C200D
:1005700030913D20420F531F5695479540933C20A4
:1005800050933D20843031F41092382081E08093E4
:100590003F200AC08FB78983F8949981E0E0F2E0A8
:1005A0008081886080839FBF0F900F90DF91CF91F3
:1005B0000895CF93DF931F92CDB7DEB78FB78983AE
:1005C000F894998180913F20882321F010923F2058
:1005D0009FBF01C09FBF0F90DF91CF9108951F93E0
:1005E000CF93DF93CDB7DEB72B97CDBFDEBFBE0174
:1005F0006F5F7F4F80E092E00E94C20EAE01485FC5
:100600005F4F61E080E092E00E94460F8A819B810B
:100610009F7890619B8392E09D83817E80618A8335
:100620001C82BE016F5F7F4F80E092E00E945C0EF3
:1006300061E772E080E092E00E94280C11E01887E8
:1006400019868A85807F81608A87AE01485F5F4F07
:1006500061E080E092E00E94FB0E188788E08987C5
:10066000AE01485F5F4F62E080E092E00E94FB0EC7
:1006700080E092E00E94840C2B96CDBFDEBFDF911C
:10068000CF911F910895CF93DF93C0913C20D091DB
:100690003D20BE0180E090E00E946F12C53AD1403B
:1006A00080F021E836E242E45DEB0E94FD1223E394
:1006B00033E345E552E40E94DA110E943E12862F90
:1006C0000FC02DE231E24FE95DEB0E94FD1223E302
:1006D00033E342E852E40E94DA110E943E12862F70
:1006E000DF91CF91089504C061507109810991098A
:1006F0006115710581059105B9F70895BF92CF92F3
:10070000DF92EF92FF920F931F93CF93DF931F928D
:10071000CDB7DEB700E016E06894FF24F3F8F801E7
:10072000F68264E070E080E090E0DDDFF801F582C1
:1007300064E070E080E090E0D6DF0F2EFBE2BF2E99
:10074000F02DB98280EA99E0C6D5C12CD12C760172
:1007500000E412E42FE030E043E0BE016F5F7F4F22
:1007600080EA99E0E7D500E616E0FF24F394F8016B
:10077000F682B982BE016F5F7F4F80EA99E0F4D5BF
:10078000F801F682E0EAF9E0818185FFFDCF80EA99
:100790008093A009E0EAF9E0818186FFFDCFE0EADD
:1007A000F9E080E481838081BE016F5F7F4F80EA42
:1007B00099E0F0D58BE28983BE016F5F7F4F80EABD
:1007C00099E0D2D581E080936606E0EAF9E0818184
:1007D00085FFFDCF86EA8093A009E0EAF9E08181F8
:1007E00086FFFDCFE0EAF9E080E481838081BE01ED
:1007F0006F5F7F4F80EA99E0CDD58BE28983BE01A0
:100800006F5F7F4F80EA99E0AFD581E08093660605
:10081000E0EAF9E0818185FFFDCF88EC8093A009B3
:10082000E0EAF9E0818186FFFDCFE0EAF9E080E4CB
:1008300081838081BE016F5F7F4F80EA99E0AAD5F6
:100840008BE28983BE016F5F7F4F80EA99E08CD590
:1008500081E080936606E0EAF9E0818185FFFDCFC3
:1008600082EA8093A009E0EAF9E0818186FFFDCF6A
:10087000E0EAF9E080E481838081BE016F5F7F4F11
:1008800080EA99E087D58BE28983BE016F5F7F4F55
:1008900080EA99E069D581E080936606E0EAF9E0B4
:1008A000818185FFFDCF8FE28093A009E0EAF9E026
:1008B000818186FFFDCFE0EAF9E080E481838081D9
:1008C000BE016F5F7F4F80EA99E064D58BE2898338
:1008D000BE016F5F7F4F80EA99E046D581E080934B
:1008E0006606E0EAF9E0818185FFFDCF88EF80931D
:1008F000A009E0EAF9E0818186FFFDCFE0EAF9E0B6
:1009000080E481838081BE016F5F7F4F80EA99E040
:1009100041D58BE28983BE016F5F7F4F80EA99E00A
:1009200023D581E080936606E0EAF9E0818185FFC6
:10093000FDCF1092A009E0EAF9E0818186FFFDCFAA
:10094000E0EAF9E080E481838081BE016F5F7F4F40
:1009500080EA99E01FD58BE28983BE016F5F7F4FEC
:1009600080EA99E001D581E080936606E0EAF9E04B
:10097000818185FFFDCF81E28093A009E0EAF9E063
:10098000818186FFFDCFE0EAF9E080E48183808108
:10099000BE016F5F7F4F80EA99E0FCD48BE28983D0
:1009A000BE016F5F7F4F80EA99E0DED481E08093E3
:1009B0006606E0EAF9E0818185FFFDCF81E880935A
:1009C000A009E0EAF9E0818186FFFDCFE0EAF9E0E5
:1009D00080E481838081BE016F5F7F4F80EA99E070
:1009E000D9D48BE28983BE016F5F7F4F80EA99E0A3
:1009F000BBD481E080936606E0EAF9E0818185FF5F
:100A0000FDCF81E28093A009E0EAF9E0818186FFD1
:100A1000FDCFE0EAF9E080E481838081BE016F5F71
:100A20007F4F80EA99E0B6D48BE28983BE016F5F85
:100A30007F4F80EA99E098D481E080936606E0EAEF
:100A4000F9E0818185FFFDCF8FEA8093A009E0EA7C
:100A5000F9E0818186FFFDCFE0EAF9E080E481835F
:100A60008081BE016F5F7F4F80EA99E093D40F9041
:100A7000DF91CF911F910F91FF90EF90DF90CF907A
:100A8000BF9008956F927F928F929F92AF92BF9284
:100A9000CF92DF92EF92FF920F931F93CF93DF934A
:100AA0001F92CDB7DEB78C01E62EF42ED22E8DD458
:100AB0008E2D8F70806BE82E8BE28983BE016F5F75
:100AC0007F4F80EA99E050D481E080936606E0EAA7
:100AD000F9E0818185FFFDCFE092A009E0EAF9E02D
:100AE000818186FFFDCFE0EAF9E080E481838081A7
:100AF000BE016F5F7F4F80EA99E04CD48F2D8F77D6
:100B000082958F708061E82E8BE28983BE016F5FD2
:100B10007F4F80EA99E028D481E080936606E0EA7E
:100B2000F9E0818185FFFDCFE092A009E0EAF9E0DC
:100B3000818186FFFDCFE0EAF9E080E48183808156
:100B4000BE016F5F7F4F80EA99E024D48F2D8F70B4
:100B5000F82E8BE28983BE016F5F7F4F80EA99E0B8
:100B600003D481E080936606E0EAF9E0818185FFA5
:100B7000FDCFF092A009E0EAF9E0818186FFFDCF88
:100B8000E0EAF9E080E481838081BE016F5F7F4FFE
:100B900080EA99E0FFD37801DA94AD2CB12CEFEF25
:100BA000AE1ABE0AA00EB11E0F2EFBE26F2EF02D64
:100BB00000EA19E00F2EF0E6CF2EF6E0DF2EF02D42
:100BC000992493946894772476F8F70181907F01B3
:100BD0006982BE016F5F7F4FC801C6D3F60195825F
:100BE000F801918195FFFCCF8082F801918196FFF9
:100BF000FCCF71828081F6019682BE016F5F7F4FCC
:100C0000C801C8D3EA14FB0401F70F90DF91CF911C
:100C10001F910F91FF90EF90DF90CF90BF90AF901A
:100C20009F908F907F906F900895FF920F931F93E6
:100C3000CF93DF931F92CDB7DEB7082FF62E142F78
:100C4000D8D30F70006B8BE28983BE016F5F7F4F3B
:100C500080EA99E089D381E080936606E0EAF9E0D2
:100C6000918195FFFDCF0093A009E0EAF9E0818131
:100C700086FFFDCFE0EAF9E080E481838081BE0158
:100C80006F5F7F4F80EA99E085D30F2D0F77029534
:100C90000F7000618BE28983BE016F5F7F4F80EA36
:100CA00099E062D381E080936606E0EAF9E0818111
:100CB00085FFFDCF0093A009E0EAF9E0818186FF7E
:100CC000FDCFE0EAF9E080E481838081BE016F5FBF
:100CD0007F4F80EA99E05ED30F2D0F708BE28983FE
:100CE000BE016F5F7F4F80EA99E03ED381E0809341
:100CF0006606E0EAF9E0818185FFFDCF0093A00957
:100D0000E0EAF9E0818186FFFDCFE0EAF9E080E4E6
:100D100081838081BE016F5F7F4F80EA99E03AD383
:100D20008BE28983BE016F5F7F4F80EA99E01CD31D
:100D300081E080936506E0EAF9E0818185FFFDCFDF
:100D40001093A009E0EAF9E0818186FFFDCFE0EA97
:100D5000F9E080E48183808181E080936606BE01B2
:100D60006F5F7F4F80EA99E015D30F90DF91CF91AD
:100D70001F910F91FF9008950F931F93CF93DF93CF
:100D80001F92CDB7DEB780E490E21AD3B7DC8BE2D6
:100D90008983BE016F5F7F4F80EA99E0E5D281E0F1
:100DA00080936606E0EAF9E0818185FFFDCF80E46B
:100DB0008093A009E0EAF9E0818186FFFDCFE0EAB7
:100DC000F9E080E481838081BE016F5F7F4F80EA1C
:100DD00099E0E0D200E00AC040E0612F802F25DFDB
:100DE0001F5F1038C9F70F5F043011F010E0F4CF27
:100DF0000F90DF91CF911F910F910895FF920F9364
:100E00001F93CF93DF9388234CF1603238F5D42FB2
:100E1000C82FF62EF694F694F69470E088E0F89ECB
:100E200060197109112481E090E08C0102C0000F6B
:100E3000111F6A95E2F76C2F8F2DE9D2D13021F086
:100E400028F0D23031F006C0802B04C000958023FA
:100E500001C08027482F6C2F8F2DE7DEDF91CF91C7
:100E60001F910F91FF900895D2C208950F931F9381
:100E7000CF93DF93D82F162F042FC22FC8D2C130A3
:100E800021F028F0C23031F006C0802B04C000955C
:100E9000802301C08027482F612F8D2FC6DEDF9170
:100EA000CF911F910F910895CF92DF92EF92FF9211
:100EB0000F931F93CF93DF93EC01D901C801B6952F
:100EC000A79597958795481759076A077B0778F480
:100ED0006A017B01CC0CDD1CEE1CFF1CC901B801B2
:100EE000A70196010E9460132150310902C020E041
:100EF00030E0832F8F708F832E83DF91CF911F91EE
:100F00000F91FF90EF90DF90CF900895DF92EF92D6
:100F1000FF920F931F93CF93DF931F92CDB7DEB74E
:100F20007C018B01009709F4B3C1803C910529F441
:100F300060E180E00E94A10FABC180E8E81681E08B
:100F4000F80621F462E080E0FCD7A2C1E114E1E000
:100F5000FE0621F461E080E0F4D79AC1F0E8EF16D4
:100F6000F3E0FF0621F461E081E0EBD791C130E9C5
:100F7000E31633E0F30621F461E082E0E2D788C1B2
:100F8000E11482E0F80621F462E081E0DAD780C162
:100F9000E0E4EE16E2E0FE0621F462E082E0D1D762
:100FA00077C1F0E2EF16F3E0FF0621F464E082E09F
:100FB000C8D76EC1E11438E0F30621F461E083E0A4
:100FC000C0D766C1E11489E0F80621F461E084E04D
:100FD000B8D75EC1E114EAE0FE0621F461E085E0E5
:100FE000B0D756C1E114FBE0FF0621F461E086E0D2
:100FF000A8D74EC130E4E31638E0F30621F462E0EE
:1010000083E09FD745C180E4E81689E0F80621F423
:1010100062E084E096D73CC1E0E4EE16EAE0FE062A
:1010200021F462E085E08DD733C1F0E9EF16F8E0F6
:10103000FF0621F464E083E084D72AC130E9E31697
:1010400039E0F30621F464E084E07BD721C180E934
:10105000E8168AE0F80621F464E085E072D718C14A
:10106000E0E9EE16EBE0FE0621F464E086E069D7E5
:101070000FC1F0ECEF16F8E0FF0621F468E083E022
:1010800060D706C130ECE31639E0F30621F468E0DE
:1010900084E057D7FDC080EAE81688E0F80661F4DE
:1010A00060E183E04ED7E0EAF8E084818F7E8483BC
:1010B000F801248122504CC0F0EAEF16F9E0FF0657
:1010C00021F460E184E03DD7E3C030EAE3163AE082
:1010D000F30621F460E185E034D7DAC080EAE8164F
:1010E0008BE0F80621F460E186E02BD7D1C0E0EB7D
:1010F000EE16E8E0FE0621F460E283E022D7C8C0E5
:10110000F0EBEF16F9E0FF0621F460E284E019D776
:10111000BFC030E8E31634E0F30621F460E483E076
:1011200010D7B6C080EAE81684E0F80621F460E43F
:1011300085E007D7ADC0F70184818F7E8483FB01F2
:1011400024812250C701F0EAEF16F8E0FF0649F4C7
:1011500080914E0684FDA5C00F2EF1E1DF2EF02D0B
:10116000A4C0803B38E0930791F0803AE9E09E0705
:1011700049F430916E0634FD9BC00F2EF9E1DF2E4D
:10118000F02D16C0803BF9E09F07F1F004C00F2E50
:10119000F5E1DF2EF02D803A3AE0930749F4809193
:1011A0008E0684FD8AC00F2EF1E2DF2EF02D15C0D1
:1011B000803A9B4091F48091AE0684FD0AC00F2EC8
:1011C000F9E2DF2EF02D09C00F2EFDE1DF2EF02D0C
:1011D00004C00F2EFDE2DF2EF02DED2DE695E695F5
:1011E000E69530E2E39FF0011124FA5F3D2D377060
:1011F00081E090E0032E02C0880F991F0A94E2F765
:101200008183223010F040E001C040E4DF015096BD
:10121000A30FB11D9FB79983F89439812C91277042
:101220002C939C91942B9C933FBF8583F7018581E0
:10123000806C8583F80184818D7F813029F4F701EA
:1012400085818260858304C0F70185818D7F8583D8
:10125000F8018581882329F0F701858184608583E1
:1012600004C0F70185818B7F8583F801408151811E
:101270006281738100E814E82EE130E0C70114DEDA
:10128000F7018481886084838481806184831AC0AB
:10129000F70184818F7E8483F80124812250C70165
:1012A00060CF0F2EF5E1DF2EF02D80EA98E06ACFB7
:1012B0000F2EFDE1DF2EF02D7BCF0F2EF5E2DF2E7E
:1012C000F02D8BCF0F90DF91CF911F910F91FF9059
:1012D000EF90DF900895803A28E0920721F460E1D2
:1012E00083E02FC60895803B28E0920721F460E256
:1012F00083E027C60895803A29E0920721F460E14F
:1013000084E01FC60895803B29E0920721F460E243
:1013100084E017C60895803A2AE0920721F460E13C
:1013200085E00FC60895803A9B4019F460E186E09D
:1013300008C608950F931F93CF93DF9300D000D07A
:10134000CDB7DEB709831A832B833C834D831E827E
:10135000BE016F5F7F4FDADD2696CDBFDEBFDF9126
:10136000CF911F910F910895FB018081E82FE695A1
:10137000E695E69540E2E49FF0011124FA5F87705C
:1013800021E030E0A90102C0440F551F8A95E2F721
:1013900046830895FB018081E82FE695E695E69562
:1013A00040E2E49FF0011124FA5F877021E030E011
:1013B000A90102C0440F551F8A95E2F7458308959D
:1013C00080934022909341220895DC01E42FF0E0C5
:1013D000AF0180E8689F400D511D1124E09140222B
:1013E000F0914122E40FF51F8D9181932150E1F797
:1013F0000895209140223091412290E8899F200D4C
:10140000311D1124F901E60FF11D4083089520914B
:1014100040223091412290E8899F200D311D1124F6
:10142000F901E60FF11D80810895FF920F931F933C
:10143000CF93DF93E42FF0E0E80FF11DE138F105E1
:101440001CF0C0E84C2F481B442309F44AC0D62F97
:10145000D695D695D69570E098E0D99F6019710918
:101460001124E1E0F0E0DF0102C0AA0FBB1F6A9582
:10147000E2F7FA2E213021F098F0223019F131C034
:10148000C42F1FEF180F012F0C0F602F8D2FECDCD6
:101490004F2D482B602F8D2FC8DBC150A1F721C0E5
:1014A000C42F1FEF180FFA2EF094012F0C0F602F8E
:1014B0008D2FDADC4F2D4823602F8D2FB6DBC150E6
:1014C000A1F70FC0C42F1FEF180F012F0C0F602FB3
:1014D0008D2FCADC4F2D4827602F8D2FA6DBC150E2
:1014E000A1F7DF91CF911F910F91FF900895EF9297
:1014F000FF920F931F93CF93DF93442309F446C0C9
:10150000122FD82F9FEF960F940F691303C0422F0D
:1015100075DC3CC09F3108F09FE1C62FC695C6958B
:10152000C695092F06950695069567702FEF30E052
:10153000A90102C0440F551F6A95E2F7977067E052
:1015400070E0FB01E91BF109790102C0F594E79411
:10155000EA95E2F7C01306C04E21212F6D2F8C2F84
:1015600085DC14C0212F6D2F8C2F80DCCF5FC0173E
:1015700040F4212F4FEF6D2F8C2F78DCCF5FC017F9
:10158000C0F3212F4E2D6D2F802F70DCDF91CF9176
:101590001F910F91FF90EF900895FF920F931F936B
:1015A000CF93DF93D82F162FC42FF22E202F3DDF9D
:1015B0006FEF6F0D610F202F4C2F8D2F36DF202FF7
:1015C0004F2D612F8D2F93DF8FEF8C0F202F4F2DFD
:1015D000612F8D0F8CDFDF91CF911F910F91FF90C5
:1015E0000895FF920F931F93CF93DF93222369F007
:1015F000F42E182FC22FDFEFD60F6D2F6C0F202F78
:101600004F2D812F12DFC150C1F7DF91CF911F9174
:101610000F91FF900895CF92DF92EF92FF920F9378
:101620001F93CF93DF937C01D62EDC011196CC90D3
:101630001197C694C694C6944695469546951296BB
:101640008C91882331F0813009F045C0C11023C04E
:1016500042C0C11028C03FC0C0E0809FF001819F00
:10166000F00D1124EC0FF11DD70113964D915C91F3
:101670001497E40FF51F44916D2D6C0F8D2FD5DA63
:10168000CF5FF7018081C81740F30F5F1F4FDF5F07
:101690000C1520F020C0D42F00E010E0D7018C9171
:1016A0008111DACFF2CFC40ED42F00E010E0F701A1
:1016B0002081209FC001219F900D11240380F4817F
:1016C000E02D4D2D6D2F8E0F9F1FDCD90F5F1F4F0B
:1016D000DF5FCD12ECCFDF91CF911F910F91FF9083
:1016E000EF90DF90CF900895AF92BF92CF92DF92AC
:1016F000EF92FF920F931F93CF93DF93C82FE62EA5
:10170000B42E690100E0F901248143816B2D8E2DF7
:1017100068DFF6018081811139C08381282F2695E9
:1017200026952695877009F02F5FF601A4808C2FEF
:1017300090E03581831B91092A9D90011124829F9D
:10174000A001839F500D929F500D112401811281A1
:10175000040F151FF601F380FF20A1F0D0E0C0E0D8
:101760008E2D8C0F9C2F977021F4F801D4910F5F70
:101770001F4FDD231CF441E06B2D40DBDD0FCF5FFD
:10178000FC12EECFB394AA94A110E4CFDF91CF91D5
:101790001F910F91FF90EF90DF90CF90BF90AF908F
:1017A0000895DF92EF92FF920F931F93CF93DF93F1
:1017B000D62E042F7901EC01162F89918A3031F44D
:1017C000F70184818F5F080F1D2D09C08D3039F01E
:1017D0009701402F612F88DFF7018381180F8881DF
:1017E0008111EBCFDF91CF911F910F91FF90EF907F
:1017F000DF900895DF92EF92FF920F931F93CF93A4
:10180000DF93EC01D62E042F7901FC01849188230B
:10181000B9F0162F8A3031F4F70184818F5F080FF9
:101820001D2D09C08D3039F09701402F612F5CDFED
:10183000F7018381180F2196FE0184918111EACF6F
:10184000DF91CF911F910F91FF90EF90DF9008955E
:10185000CF93DF931F92CDB7DEB72FB72983F894CC
:101860004981282F392F211582E0380729F4609308
:1018700046227093472207C02034324021F46093FF
:101880004422709345224FBF0F90DF91CF9108956E
:10189000811522E0920761F48091432291E0980F34
:1018A00090934322811112C062E081E04AC30895FF
:1018B0008034924059F48091422291E0980F9093A5
:1018C0004222811103C062E082E03BC3089581158A
:1018D00022E0920759F48091432281508093432261
:1018E000811111C062E081E042C3089580349240CA
:1018F00051F480914222815080934222811103C091
:1019000062E082E034C30895EF92FF921F93CF9379
:10191000DF931F921F92CDB7DEB77C018FB789830B
:10192000F8941981C701B4DFF70180818160808359
:101930001FBF809149228F3F09F4FFCF8FB78A8361
:10194000F8949A81E8E4F2E281818F5F81839FBFFE
:101950000F900F90DF91CF911F91FF90EF9008951E
:10196000CF93DF931F92CDB7DEB78FB78983F894FB
:101970009981E0E0F2E08081886080839FBF0E94CF
:10198000D9028823E1F30E944303082E000C990B2F
:101990000F90DF91CF9108951F920F920FB60F9283
:1019A00011240BB60F922F933F934F935F936F9336
:1019B0007F938F939F93AF93BF93EF93FF93409148
:1019C000240250912502E0914622F091472261E0E5
:1019D00080E092E01995FF91EF91BF91AF919F91B7
:1019E0008F917F916F915F914F913F912F910F90C8
:1019F0000BBE0F900FBE0F901F9018951F920F9265
:101A00000FB60F9211240BB60F922F933F934F9363
:101A10005F936F937F938F939F93AF93BF93EF9356
:101A2000FF9340912C0250912D02E0914622F091BB
:101A3000472262E080E092E01995FF91EF91BF911B
:101A4000AF919F918F917F916F915F914F913F9156
:101A50002F910F900BBE0F900FBE0F901F901895F7
:101A60001F920F920FB60F9211240BB60F922F9365
:101A70003F934F935F936F937F938F939F93AF9316
:101A8000BF93EF93FF934091340250913502E09160
:101A90004622F091472264E080E092E01995FF91A0
:101AA000EF91BF91AF919F918F917F916F915F91D6
:101AB0004F913F912F910F900BBE0F900FBE0F9043
:101AC0001F9018951F920F920FB60F9211240BB60C
:101AD0000F922F933F934F935F936F937F938F93C7
:101AE0009F93AF93BF93EF93FF9340913C0250912C
:101AF0003D02E0914622F091472268E080E092E0CA
:101B00001995FF91EF91BF91AF919F918F917F9127
:101B10006F915F914F913F912F910F900BBE0F905E
:101B20000FBE0F901F9018951F920F920FB60F9235
:101B300011240BB60F922F933F934F935F936F93A4
:101B40007F938F939F93AF93BF93EF93FF934091B6
:101B5000640250916502E0914422F091452261E0D7
:101B600080E492E01995FF91EF91BF91AF919F9121
:101B70008F917F916F915F914F913F912F910F9036
:101B80000BBE0F900FBE0F901F9018951F920F92D3
:101B90000FB60F9211240BB60F922F933F934F93D2
:101BA0005F936F937F938F939F93AF93BF93EF93C5
:101BB000FF9340916C0250916D02E0914422F091AC
:101BC000452262E080E492E01995FF91EF91BF9188
:101BD000AF919F918F917F916F915F914F913F91C5
:101BE0002F910F900BBE0F900FBE0F901F90189566
:101BF0001F920F920FB60F9211240BB60F922F93D4
:101C00003F934F935F936F937F938F939F93AF9384
:101C1000BF93EF93FF934091740250917502E0914E
:101C20004422F091452264E080E492E01995FF910E
:101C3000EF91BF91AF919F918F917F916F915F9144
:101C40004F913F912F910F900BBE0F900FBE0F90B1
:101C50001F9018951F920F920FB60F9211240BB67A
:101C60000F922F933F934F935F936F937F938F9335
:101C70009F93AF93BF93EF93FF9340917C0250915A
:101C80007D02E0914422F091452268E080E492E0F8
:101C90001995FF91EF91BF91AF919F918F917F9196
:101CA0006F915F914F913F912F910F900BBE0F90CD
:101CB0000FBE0F901F901895BF92CF92DF92EF92B8
:101CC000FF920F931F93CF93DF931F92CDB7DEB791
:101CD0008C017B01811522E0920771F461E270E0D2
:101CE00082E0B3D1C82ED12C60E270E082E0ADD1A9
:101CF000DC2CCC24C82A10C080349240C1F565E2A7
:101D000070E082E0A2D1C82ED12C64E270E082E0C3
:101D10009CD1DC2CCC24C82A8FB78983F894B98055
:101D2000C801B6DDF801808192E09083C486D58633
:101D3000F70125813681F801208F318FF7019281DB
:101D4000F8019283F7019481F8019483F70193815C
:101D5000F8019383F7019181F80191838170F70174
:101D60009081892BF8018083C801B1DDBFBE0F903F
:101D7000DF91CF911F910F91FF90EF90DF90CF9067
:101D8000BF900895DF92EF92FF920F931F93CF932E
:101D9000DF931F92CDB7DEB78C017B018FB78983AC
:101DA000F894D980C80174DDF8018081807CF70146
:101DB0008083F801808D918DF70185839683F801EA
:101DC0008281F7018283F8018481F7018483F8011D
:101DD0008381F7018383F8018181F7018183C80141
:101DE00076DDDFBE0F90DF91CF911F910F91FF90B5
:101DF000EF90DF900895AF92BF92CF92DF92EF9273
:101E0000FF920F931F93CF93DF931F92CDB7DEB74F
:101E10006C01B62E7A01862F837029F4962F969541
:101E2000969582E002C0962F80E090FF8F5F86013A
:101E3000005E1F4F98E0899F000D111D11248FB780
:101E40008983F894A980C60123DDF7018081F80118
:101E50008083F7018281F8018283F7018181F80193
:101E60008183B0FE04C0F7018381F8018683C60137
:101E70002EDDAFBE0F90DF91CF911F910F91FF909C
:101E8000EF90DF90CF90BF90AF900895AF92BF9248
:101E9000CF92DF92EF92FF920F931F93CF93DF9336
:101EA0001F92CDB7DEB76C01B62E7A01862F8370F4
:101EB00029F4962F9695969582E002C0962F80E0A1
:101EC00090FF8F5F8601005E1F4F98E0899F000D95
:101ED000111D11248FB78983F894A980C601D8DC1D
:101EE000F8018081F7018083F8018281F701828304
:101EF000F8018181F7018183B0FE04C0F801868179
:101F0000F7018383C601E3DCAFBE0F90DF91CF9171
:101F10001F910F91FF90EF90DF90CF90BF90AF9007
:101F200008958FEF8093700080937100809372000A
:101F30008093730080937400809375008093760083
:101F40000895CF93DF931F92CDB7DEB79FB79983E4
:101F5000F8949981E82FF0E0E059FF4F6095808177
:101F6000682360839FBF0F90DF91CF910895CF9337
:101F7000DF931F92CDB7DEB79FB79983F89499810D
:101F8000E82FF0E0E059FF4F8081682B60839FBF0E
:101F90000F90DF91CF910895DC01E0ECF1E097859F
:101FA0009923ECF3ECECF1E0808188608083B05FF2
:101FB0008C919081977F90830895E0ECF1E0878584
:101FC0008823ECF38091CF0181FF07C086E38093E3
:101FD000CA0161E08BEC91E042C00895E0ECF1E0D1
:101FE00097859923ECF3ACECB1E09C9198609C93BD
:101FF000E82FF0E0F05F60838C91877F8C930895E9
:10200000FF920F931F93CF93DF93182FF92EC62FB4
:102010000091CA01D2DFE0ECF1E087858823ECF380
:102020006C2F812FDBDFC0ECD1E01A82F98218839C
:1020300085E38A8761E08BEC91E011D00A87DF911C
:10204000CF911F910F91FF9008954091CA01E62F03
:10205000F72F8093CA0184914093CA0108951BBE53
:10206000FC0128ED24BF60830895CF93DF93FC012A
:1020700020E030E0C62FD0E0DE01022E02C0B59590
:10208000A7950A94E2F7A0FD508B2F5F3F4F319642
:102090002830310589F740FF0AC041FF03C0FC0129
:1020A000658302C0FC016683FC01618302C0FC0100
:1020B0006283DF91CF91089543E050E061E080EECC
:1020C00097E0D3DF43E050E062E080EE97E0CDDFC1
:1020D00043E050E060E180E696E0C7DF41E050E495
:1020E00060E280E696E0C1DF40E05BE160E280E82C
:1020F00096E0BBDF40E05BE162E080EA96E0B5DFBE
:1021000040E05BE164E080EA96E0AFDF43E050E06E
:1021100062E080E696E0A9DF43E050E068E080E618
:1021200096E0A3DF43E050E068E080EA96E09DDFC0
:1021300043E050E061E080E696E097DF43E050E066
:1021400068E080E096E091DF41E050E060E180E807
:1021500096E08BDF43E050E062E080E696E085DFCA
:1021600043E050E068E080E696E07FDF40E050E04A
:1021700064E080E696E079DF43E050E060E180EAE9
:1021800096E073DF40E050E061E080E096E06DDFD4
:1021900040E050E064E080E096E067DF40E050E03F
:1021A00062E080E296E061DF43E050E068E080E4D6
:1021B00096E05BDF40E050E064E080E496E055DFCD
:1021C00043E050E068E080E696E04FDF40E050E01A
:1021D00064E080E696E049DF43E050E068E080E8B4
:1021E00096E043DF40E050E064E080E896E03DCFD9
:1021F0000895CF93DF93CDB7DEB76897CDBFDEBF2D
:1022000090DE5ADF87E08093A2000E94BC060E9405
:10221000EF0280E18093850678941B8286E08983B3
:1022200080E28A8387E090E28C839D8301E020E254
:1022300040E860E080E0B1D900E02EE14EE761E0E7
:1022400081E0CFD920E030E242E06BE18EE894E01B
:10225000D1DA40E06AE0CE010196DDD980E090E07D
:102260009BDE882331F080E090E096DEE82EF12CB2
:1022700002C0E12CF12C0F2EFFE18F2EF0E29F2EF9
:10228000F02D0F2EFFE03F2EF02D6E0126E0C20E46
:10229000D11C0F2EFBE26F2EF0E27F2EF02D0F2EC1
:1022A000F0EEAF2EF7E0BF2EF02D2224239458DB62
:1022B000BC01990F880B990B14D16D8B7E8B8F8B82
:1022C000988F2CEE31E548EB5EEB97D120E030E0C3
:1022D00042EA51E46FD0D7D0262F00E042E063E01D
:1022E0008CE07FD926E636E646EE5FE36D897E898F
:1022F0008F89988D82D120E030E040E052E45AD0BE
:10230000BDD0462E572E062F172F7F936F939F9287
:102310008F921F923F92DF92CF92F4D120E030E271
:1023200045E166E1C6013DDACDBFDEBFE114F1044F
:1023300011F4E42CF52CFF92EF927F926F921F9292
:102340003F92DF92CF92DED120E030E24DE066E1B5
:10235000C60127DA8091A806CDBFDEBF81FD07C088
:10236000FFEFEF1AFF0A6E2D80E090E049DE8091CA
:10237000A80682FD07C021E0E21AF1086E2D80E078
:1023800090E03EDEE016F10624F4F501268282E0BC
:1023900085830E151F0524F482E0F50186832582CE
:1023A000E016F10609F083CFF501258282E08583EE
:1023B0007ECF5058BB27AA270ED0E5C0D6D030F02C
:1023C000DBD020F031F49F3F11F41EF4CBC00EF4AB
:1023D000E095E7FBC1C0E92FE7D080F3BA176207A9
:1023E00073078407950718F071F49EF5FFC00EF48B
:1023F000E0950B2EBA2FA02D0B01B90190010C0115
:10240000CA01A0011124FF27591B99F0593F50F42C
:10241000503E68F11A16F040A22F232F342F442784
:10242000585FF3CF469537952795A795F04053957C
:10243000C9F77EF41F16BA0B620B730B840BBAF04C
:102440009150A1F0FF0FBB1F661F771F881FC2F7B7
:102450000EC0BA0F621F731F841F48F487957795CB
:102460006795B795F7959E3F08F0B3CF9395880F82
:1024700008F09927EE0F97958795089504D06894F2
:10248000B111B5C0089598D088F09F5790F0B92F3A
:102490009927B751A0F0D1F0660F771F881F991FB9
:1024A0001AF0BA95C9F712C0B13081F09FD0B1E0EF
:1024B00008959CC0672F782F8827B85F39F0B93FFF
:1024C000CCF3869577956795B395D9F73EF49095BB
:1024D0008095709561957F4F8F4F9F4F0895E89439
:1024E00009C097FB3EF490958095709561957F4F5C
:1024F0008F4F9F4F9923A9F0F92F96E9BB2793950A
:10250000F695879577956795B795F111F8CFFAF419
:10251000BB0F11F460FF1BC06F5F7F4F8F4F9F4F4A
:1025200016C0882311F096E911C0772321F09EE8A8
:10253000872F762F05C0662371F096E8862F70E00E
:1025400060E02AF09A95660F771F881FDAF7880FE8
:102550009695879597F9089597F99F6780E870E0B9
:1025600060E008959FEF80EC089500240A94161609
:10257000170618060906089500240A941216130671
:10258000140605060895092E0394000C11F48823FF
:1025900052F0BB0F40F4BF2B11F460FF04C06F5F1B
:1025A0007F4F8F4F9F4F089557FD9058440F551FF1
:1025B00059F05F3F71F04795880F97FB991F61F0C5
:1025C0009F3F79F087950895121613061406551F3C
:1025D000F2CF4695F1DF08C0161617061806991FA8
:1025E000F1CF86957105610508940895E894BB279D
:1025F00066277727CB0197F908950BD0C4CFB5DFB5
:1026000028F0BADF18F0952309F0A6CFABCF11243C
:10261000EECFCADFA0F3959FD1F3950F50E0551F81
:10262000629FF001729FBB27F00DB11D639FAA2727
:10263000F00DB11DAA1F649F6627B00DA11D661F76
:10264000829F2227B00DA11D621F739FB00DA11D97
:10265000621F839FA00D611D221F749F3327A00D51
:10266000611D231F849F600D211D822F762F6A2FED
:1026700011249F5750408AF0E1F088234AF0EE0F72
:10268000FF1FBB1F661F771F881F91505040A9F77F
:102690009E3F510570F060CFAACF5F3FECF3983EAC
:1026A000DCF3869577956795B795F795E7959F5FE6
:1026B000C1F7FE2B880F911D9695879597F9089580
:1026C000A1E21A2EAA1BBB1BFD010DC0AA1FBB1F36
:1026D000EE1FFF1FA217B307E407F50720F0A21BA8
:1026E000B30BE40BF50B661F771F881F991F1A9415
:1026F00069F760957095809590959B01AC01BD013F
:10270000CF0108950F931F93CF93DF93CDB7DEB71B
:102710002E97CDBFDEBF0E891F89888D998D26E04B
:102720002C8309831A8397FF02C080E090E8019709
:102730008D839E83AE01445E5F4F6A8D7B8DCE019B
:10274000019616D04D815E8157FD0AC02F813885D4
:10275000421753070CF49A01F801E20FF31F10829D
:102760002E96CDBFDEBFDF91CF911F910F910895BF
:102770002F923F924F925F926F927F928F929F9291
:10278000AF92BF92CF92DF92EF92FF920F931F937F
:10279000CF93DF93CDB7DEB72B97CDBFDEBF6C01F4
:1027A0007B018A01FC0116821782838181FFBFC1F0
:1027B000CE0101963C01F6019381F70193FD8591CD
:1027C00093FF81917F01882309F4ADC1853239F4EB
:1027D00093FD859193FF81917F01853221F4B601AC
:1027E00090E0D3D1E8CF912C212C312CFFE1F315CF
:1027F000D8F08B3279F038F4803279F08332A1F45A
:10280000232D20611DC08D3261F0803369F4232DAA
:10281000216016C0832D8260382EE32DE4603E2EA9
:102820002AC0F32DF8601DC037FC2DC020ED280F05
:102830002A3040F08E32B9F436FC75C1232D206465
:10284000322E19C036FE06C08AE0989E200D112453
:10285000922E11C0EAE02E9E200D1124222EF32D7F
:10286000F0623F2E08C08C3621F4832D8068382E0C
:1028700002C0883641F4F70193FD859193FF819161
:102880007F018111B3CF982F9F7D9554933028F409
:102890000C5F1F4F9FE399830DC0833631F0833760
:1028A00071F0833509F055C020C0F801808189831B
:1028B0000E5F1F4F88248394912C530112C028016E
:1028C000F2E04F0E511CF801A080B18036FE03C02B
:1028D000692D70E002C06FEF7FEFC5014BD14C0155
:1028E0008201F32DFF773F2E15C0280122E0420E12
:1028F000511CF801A080B18036FE03C0692D70E044
:1029000002C06FEF7FEFC5012AD14C01F32DF068B3
:102910003F2E820133FC19C0822D90E08816990663
:10292000A0F4B60180E290E030D12A94F5CFF50111
:1029300037FC859137FE81915F01B60190E025D18A
:1029400021102A9421E0821A91088114910479F7C8
:10295000E1C0843611F0893639F5F80137FE07C039
:1029600060817181828193810C5F1F4F08C06081FB
:102970007181072E000C880B990B0E5F1F4FF32DF2
:10298000FF763F2E97FF09C09095809570956195D1
:102990007F4F8F4F9F4FF0683F2E2AE030E0A3011A
:1029A00030D1882E861844C0853731F4232D2F7EF0
:1029B000B22E2AE030E025C0932D997FB92E8F36B4
:1029C000C1F018F4883579F0AEC0803719F0883737
:1029D00021F0A9C0E92FE061BE2EB4FE0DC0FB2D91
:1029E000F460BF2E09C034FE0AC0292F2660B22E23
:1029F00006C028E030E005C020E130E002C020E160
:102A000032E0F801B7FE07C0608171818281938155
:102A10000C5F1F4F06C06081718180E090E00E5F07
:102A20001F4FA301EED0882E8618FB2DFF773F2E77
:102A300036FE0DC0232D2E7FA22E891458F434FEAD
:102A40000BC032FC09C0832D8E7EA82E05C0B82C89
:102A5000A32C03C0B82C01C0B92CA4FE0FC0FE01EA
:102A6000E80DF11D8081803321F49A2D997EA92EE5
:102A700009C0A2FE06C0B394B39404C08A2D867820
:102A800009F0B394A3FC10C0A0FE06C0B21480F4F9
:102A9000280C922C9B180DC0B21458F4B60180E299
:102AA00090E073D0B394F8CFB21418F42B1802C08E
:102AB000982C212CA4FE0FC0B60180E390E065D0D5
:102AC000A2FE16C0A1FC03C088E790E002C088E522
:102AD00090E0B6010CC08A2D867851F0A1FE02C0AC
:102AE0008BE201C080E2A7FC8DE2B60190E04DD000
:102AF000891430F4B60180E390E047D09A94F8CF7F
:102B00008A94F301E80DF11D8081B60190E03DD07B
:102B10008110F6CF222009F44ECEB60180E290E07B
:102B200034D02A94F7CFF6018681978102C08FEFC7
:102B30009FEF2B96CDBFDEBFDF91CF911F910F91FD
:102B4000FF90EF90DF90CF90BF90AF909F908F90CD
:102B50007F906F905F904F903F902F900895FC0171
:102B60000590615070400110D8F7809590958E0FB8
:102B70009F1F0895FC016150704001900110D8F72B
:102B8000809590958E0F9F1F08950F931F93CF935D
:102B9000DF93FB01238121FD03C08FEF9FEF2CC04A
:102BA00022FF16C046815781248135814217530781
:102BB00044F4A081B1819D012F5F3F4F2083318379
:102BC0008C93268137812F5F3F4F2683378314C034
:102BD0008B01EC01FB010084F185E02D1995892B17
:102BE000E1F6D80116968D919C911797019616964D
:102BF0008D939C931797CE01DF91CF911F910F91E9
:102C00000895FA01AA27283051F1203181F1E89482
:102C10006F936E7F6E5F7F4F8F4F9F4FAF4FB1E0CF
:102C20003ED0B4E03CD0670F781F891F9A1FA11DCA
:102C3000680F791F8A1F911DA11D6A0F711D811DCB
:102C4000911DA11D20D009F468943F912AE0269F90
:102C500011243019305D3193DEF6CF010895462FEF
:102C60004770405D4193B3E00FD0C9F7F6CF462FD0
:102C70004F70405D4A3318F0495D31FD4052419339
:102C800002D0A9F7EACFB4E0A695979587957795F6
:102C90006795BA95C9F700976105710508959B017D
:102CA000AC010A2E06945795479537952795BA9506
:102CB000C9F7620F731F841F951FA01D0895F89414
:022CC000FFCF44
:102CC20000FC010607207D01F9FDFDF90141FFFF2E
:102CD200FFFF4110FFFFFFFF109EBFBFBFBF9E253A
:102CE20033692043757272656E740025336920441E
:082CF20065736972656400005E
:00000001FF
