:10000000FDC0000005C1000003C1000001C10000E7
:10001000FFC00000FDC00000FBC00000F9C00000F0
:10002000F7C00000F5C00000F3C00000F1C0000000
:10003000EFC00000EDC00000EBC00000E9C0000010
:10004000E7C00000E5C00000E3C00000E1C0000020
:10005000DFC00000DDC00000DBC00000D9C0000030
:10006000D7C00000D5C00000D3C00000D1C0000040
:10007000CFC00000CDC00000CBC00000C9C0000050
:10008000C7C00000C5C00000C3C00000C1C0000060
:10009000BFC00000BDC00000BBC00000B9C0000070
:1000A000B7C00000B5C00000B3C00000B1C0000080
:1000B000AFC00000ADC00000ABC00000A9C0000090
:1000C000A7C00000A5C00000A3C00000A1C00000A0
:1000D0009FC000009DC000009BC0000099C00000B0
:1000E00097C0000095C0000093C0000091C00000C0
:1000F0008FC000008DC000008BC0000089C00000D0
:1001000087C0000085C0000083C0000081C00000DF
:100110007FC000007DC000007BC0000079C00000EF
:1001200077C0000075C0000073C0000071C00000FF
:100130006FC000006DC000006BC0000069C000000F
:1001400067C0000065C0000063C0000061C000001F
:100150005FC000005DC000005BC0000059C000002F
:1001600057C0000055C0000053C0000051C000003F
:100170004FC000004DC000004BC0000049C000004F
:1001800047C0000045C0000043C0000041C000005F
:100190003FC000003DC000003BC0000039C000006F
:1001A00037C0000035C0000033C0000031C000007F
:1001B0002FC000002DC000002BC0000029C000008F
:1001C00027C0000025C0000023C0000021C000009F
:1001D0001FC000001DC000001BC0000019C00000AF
:1001E00017C0000015C0000013C0000011C00000BF
:1001F0000FC000000DC000000BC0000011241FBE86
:10020000CFEFCDBFDFE5DEBF00E00CBF62D084C022
:10021000F7CECF93DF931F921F92CDB7DEB7009733
:10022000C9F040E050E019821A8229813A812817EA
:10023000390758F429813A812F5F3F4F29833A8348
:1002400029813A8128173907A8F34F5F5F4F841738
:10025000950749F70F900F90DF91CF910895CF92B6
:10026000DF92EF92FF920F931F93CF93DF931F9232
:100270001F92CDB7DEB7C82ED62E81E090E08983DD
:100280009A8307EE17E00F2EF8EAEF2EF6E0FF2E26
:10029000F02D10C0F801C08288EC90E0BADFF801C0
:1002A000D082F701808181FD03C0808182FF02C07E
:1002B00019821A8289819A81892B61F70F900F9098
:1002C000DF91CF911F910F91FF90EF90DF90CF9032
:1002D00008958FEF8093E0071092A006C8EAD6E059
:1002E000888181FD05C06FEF70E08EEF90E0B7DF91
:1002F000888182FD05C06FEF70E08DEF90E0AFDF89
:10030000888181FFEDCF888182FFEACF6DEF70E0B9
:0C0310008EEF90E0A4DFE4CFF894FFCF64
:00000001FF
