S00D00007461736B322E7372656332
S11300000C94FA000C9420010C9420010C9420010F
S11300100C9420010C9420010C9420010C942001D8
S11300200C9420010C9420010C9420010C942001C8
S11300300C9420010C9420010C9420010C942001B8
S11300400C9420010C9420010C9420010C942001A8
S11300500C9420010C9420010C9420010C94200198
S11300600C9420010C9420010C9420010C94200188
S11300700C9420010C9420010C9420010C94200178
S11300800C9420010C9420010C9420010C94200168
S11300900C9420010C9420010C9420010C94200158
S11300A00C9420010C9420010C9420010C94200148
S11300B00C9420010C9420010C9420010C94200138
S11300C00C9420010C9420010C9420010C94200128
S11300D00C9420010C9420010C9420010C94200118
S11300E00C9420010C9420010C9420010C94200108
S11300F00C9420010C9420010C9420010C942001F8
S11301000C9420010C9420010C9420010C942001E7
S11301100C9420010C9420010C9420010C942001D7
S11301200C9420010C9420010C9420010C942001C7
S11301300C9420010C9420010C9420010C942001B7
S11301400C9420010C9420010C9420010C942001A7
S11301500C9420010C9420010C9420010C94200197
S11301600C9420010C9420010C9420010C94200187
S11301700C9420010C9420010C9420010C94200177
S11301800C9420010C9420010C9420010C94200167
S11301900C9420010C9420010C9420010C94200157
S11301A00C9420010C9420010C9420010C94200147
S11301B00C9420010C9420010C9420010C94200137
S11301C00C9420010C9420010C9420010C94200127
S11301D00C9420010C9420010C9420010C9408022E
S11301E00C943D020C9420010C9420010C942001E9
S11301F00C94200111241FBECFEFCDBFDFE3DEBF7F
S113020000E00CBF18BE19BE1ABE1BBE10E2A0E06F
S1130210B0E2E8EEF4E000E00BBF02C007900D92FC
S1130220A430B107D9F71BBE20E2A4E0B0E201C0BC
S11302301D92A731B207E1F70E9494010C94720257
S11302400C940000FC01608371834283148613863E
S1130250168615860895FC01958526859F5F937003
S113026081E0921301C080E008951F93CF93DF9340
S1130270EC01162F0E942B01882379F09D85FE0145
S1130280E90FF11D17839F5F93709D87E881F981C2
S113029093819C7F2A81922B9383DF91CF911F912D
S11302A00895FC012385948581E0291301C080E031
S11302B00895FC018485DF01A80FB11D13968C916C
S11302C094859F5F937094870895FC0193859F5F45
S11302D093708485A081B1812C91981749F083850E
S11302E0DF01A80FB11D13962C93938781E0089525
S11302F080E00895FC0196858585981307C00190D8
S1130300F081E02D83818C7F838308958685DF01CE
S1130310A80FB11D17968C91A081B1818C9386850D
S11303208F5F837086870895E0E8F6E08FEF80831F
S11303308483E0EAF6E088E0818384E0828341E01C
S113034060EA7BE088E090E20E942201E0910820CC
S1130350F091092083E0858383818F7C806183838E
S1130360A0EABBE08CE016968C93169717961C9225
S1130370848180618483848188608483E0EAF0E0FE
S11303808281816082837894C0E0EC2FF0E0E050B9
S1130390F04E608188E090E20E9435018111CF5FC8
S11303A0C33098F3C0E0D0E088E090E20E945101AD
S11303B0882369F088E090E20E945901FE01EB5F16
S11303C0FF4D80832196C330D10519F0EDCFC330A2
S11303D058F31092042080E090E021E0FC01EB5FF0
S11303E0FF4D4081FC01E050F04E308143132093D7
S11303F0042001968330910589F7E0E8F6E09FEF49
S113040080910420882311F09483FACF1482F8CFCA
S11304101F920F920FB60F92112408B60F9218BEB6
S113042009B60F9219BE0BB60F921BBE2F933F93C2
S11304304F935F936F937F938F939F93AF93BF93E8
S1130440EF93FF9388E090E20E946501FF91EF91A2
S1130450BF91AF919F918F917F916F915F914F91D8
S11304603F912F910F900BBE0F9009BE0F9008BEC5
S11304700F900FBE0F901F9018951F920F920FB6FA
S11304800F92112408B60F9218BE09B60F9219BE26
S11304900BB60F921BBE2F933F934F935F936F93B3
S11304A07F938F939F93AF93BF93EF93FF9388E0D2
S11304B090E20E947A01FF91EF91BF91AF919F91D9
S11304C08F917F916F915F914F913F912F910F90F9
S11304D00BBE0F9009BE0F9008BE0F900FBE0F9079
S10B04E01F901895F894FFCF5A
S10704E855AAF0001D
S9030000FC
