S00D00007461736B312E7372656333
S11300000C94FA000C940A010C940A010C940A0151
S11300100C940A010C940A010C940A010C940A0130
S11300200C940A010C940A010C940A010C940A0120
S11300300C940A010C940A010C940A010C940A0110
S11300400C940A010C940A010C940A010C940A0100
S11300500C940A010C940A010C940A010C940A01F0
S11300600C940A010C940A010C940A010C940A01E0
S11300700C940A010C940A010C940A010C940A01D0
S11300800C940A010C940A010C940A010C940A01C0
S11300900C940A010C940A010C940A010C940A01B0
S11300A00C940A010C940A010C940A010C940A01A0
S11300B00C940A010C940A010C940A010C940A0190
S11300C00C940A010C940A010C940A010C940A0180
S11300D00C940A010C940A010C940A010C940A0170
S11300E00C940A010C940A010C940A010C940A0160
S11300F00C940A010C940A010C940A010C940A0150
S11301000C940A010C940A010C940A010C940A013F
S11301100C940A010C940A010C940A010C940A012F
S11301200C940A010C940A010C940A010C940A011F
S11301300C940A010C940A010C940A010C940A010F
S11301400C940A010C940A010C940A010C940A01FF
S11301500C940A010C940A010C940A010C940A01EF
S11301600C940A010C940A010C940A010C940A01DF
S11301700C940A010C940A010C940A010C940A01CF
S11301800C940A010C940A010C940A010C940A01BF
S11301900C940A010C940A010C940A010C940A01AF
S11301A00C940A010C940A010C940A010C940A019F
S11301B00C940A010C940A010C940A010C940A018F
S11301C00C940A010C940A010C940A010C940A017F
S11301D00C940A010C940A010C940A010C940A016F
S11301E00C940A010C940A010C940A010C940A015F
S11301F00C940A0111241FBECFEFCDBFDFE3DEBF95
S113020000E00CBF18BE19BE1ABE1BBE0E940C0132
S11302100C946A010C940000CF93DF93CDB7DEB742
S1130220C15ED140CDBFDEBFE0EEF7E08FEF80834B
S11302308483CF51DE4F1882C15ED140E0E4F6E002
S113024088E0818384E08283E0EAF8E083E08583C8
S11302508CE0868384818061848384818860848344
S11302606AE070E090E02AC0818185FFFDCFCF5124
S1130270DE4F8881C15ED140808381818823ECF781
S11302808081CF51DE4F8883C15ED140A1EFB0E0C1
S1130290AC0FBD1FA20FB31F4C91A1E0B0E0AC0F97
S11302A0BD1FA20FB31F8C91481391E02F5F3F4FE6
S11302B0203F3105C9F66150710919F020E030E0A2
S11302C0D3CFE0EEF7E08FEF992311F08483FCCFD6
S10B02D01482FACFF894FFCF69
S9030000FC
