S00D00007461736B332E7372656331
S11300000C94FA000C9412010C9412010C94120139
S11300100C9412010C9412010C9412010C94120110
S11300200C9412010C9412010C9412010C94120100
S11300300C9412010C9412010C9412010C941201F0
S11300400C9412010C9412010C9412010C941201E0
S11300500C9412010C9412010C9412010C941201D0
S11300600C9412010C9412010C9412010C941201C0
S11300700C9412010C9412010C9412010C941201B0
S11300800C9412010C9412010C9412010C941201A0
S11300900C9412010C9412010C9412010C94120190
S11300A00C9412010C9412010C9412010C94120180
S11300B00C9412010C9412010C9412010C94120170
S11300C00C9412010C9412010C9412010C94120160
S11300D00C9412010C9412010C9412010C94120150
S11300E00C9412010C9412010C9412010C94120140
S11300F00C9412010C9412010C9412010C94120130
S11301000C9412010C9412010C9412010C9412011F
S11301100C9412010C9412010C9412010C9412010F
S11301200C9412010C9412010C9412010C941201FF
S11301300C9412010C9412010C9412010C941201EF
S11301400C9412010C9412010C9412010C941201DF
S11301500C9412010C9412010C9412010C941201CF
S11301600C9412010C9412010C9412010C941201BF
S11301700C9412010C9412010C9412010C941201AF
S11301800C9412010C9412010C9412010C9412019F
S11301900C9412010C9412010C9412010C9412018F
S11301A00C9412010C9412010C9412010C9412017F
S11301B00C9412010C9412010C9412010C9412016F
S11301C00C9412010C9412010C9412010C9412015F
S11301D00C9412010C9412010C9412010C9412014F
S11301E00C9412010C9412010C9412010C9412013F
S11301F00C94120111241FBECFEFCDBFDFE3DEBF8D
S113020000E00CBF18BE19BE1ABE1BBE20E2A0E05F
S1130210B0E201C01D92A832B207E1F70E94C0010A
S11302200C9418020C940000FC01818180730895E1
S1130230FC0190819068908308958F92AF92BF9251
S1130240CF92EF920F931F93CF93DF93CDB7DEB787
S1130250FC01608771871286048715871686CE286D
S11302602C29422B4283A482B58280818C7D8829EB
S11302709E85992329F0806280838D85868301C0C1
S11302808083DF91CF911F910F91EF90CF90BF901A
S1130290AF908F900895FC019081946090830895AD
S11302A0FC01638308958F92AF92BF92CF92EF9235
S11302B00F931F931F921F92812C0F2EF4E1AF2EE8
S11302C0B12CF02DC12CE12C00EA1BE020E140E030
S11302D064E170E280E191E00E941D0180E191E01F
S11302E00E944B016CEA80E191E00E9450010F9062
S11302F00F901F910F91EF90CF90BF90AF908F9080
S113030008958F92AF92BF92CF92EF920F931F9363
S11303101F921F92812C0F2EF4E1AF2EB12CF02DE1
S1130320CC24C394E12C00E010E220E040E060EA39
S11303307BE080E291E00E941D0180E291E00E9456
S11303404B016BEA80E291E00E9450010F900F9004
S11303501F910F91EF90CF90BF90AF908F90089521
S1130360E0EAF6E088E0818384E08283E0EAFBE06F
S113037083E085838481886184838CE08683089507
S11303800E94B001E0EEF7E08FEF80838483E0E029
S1130390F1E08081806880830E9453010E94810182
S11303A0C4E1D0E2FE0181E681938F5F8537E1F7F6
S11303B080E291E00E94180180E191E00E9418011E
S11303C000E010E002C00F5F1F4F80E291E00E9446
S11303D014018823C1F30093E407E0E0F0E248E26B
S11303E050E221E099918191981320E0C417D50738
S11303F0C9F784E190E0E0EEF7E04FEF2223B1F09B
S11304008531910510F4019602C080E090E03FE749
S113041058E361E0315050406040E1F700C0000013
S1130420DC01A050B04E3C913483E8CF4483E6CF46
S1070430F894FFCF6A
S9030000FC
